{
  "_format": "hh-sol-artifact-1",
  "contractName": "DPBAC",
  "sourceName": "contracts/DPBAC.sol",
  "abi": [
    {
      "inputs": [],
      "stateMutability": "nonpayable",
      "type": "constructor"
    },
    {
      "anonymous": false,
      "inputs": [
        {
          "indexed": false,
          "internalType": "string",
          "name": "link",
          "type": "string"
        },
        {
          "indexed": false,
          "internalType": "enum Resources.ResourceType",
          "name": "res",
          "type": "uint8"
        },
        {
          "indexed": false,
          "internalType": "uint256",
          "name": "res_id",
          "type": "uint256"
        },
        {
          "indexed": false,
          "internalType": "string",
          "name": "location",
          "type": "string"
        }
      ],
      "name": "NewResource",
      "type": "event"
    },
    {
      "anonymous": false,
      "inputs": [
        {
          "indexed": false,
          "internalType": "address",
          "name": "addr",
          "type": "address"
        },
        {
          "indexed": false,
          "internalType": "string",
          "name": "name",
          "type": "string"
        },
        {
          "indexed": false,
          "internalType": "enum Users.UserRole",
          "name": "role",
          "type": "uint8"
        }
      ],
      "name": "NewUser",
      "type": "event"
    },
    {
      "anonymous": false,
      "inputs": [
        {
          "indexed": false,
          "internalType": "address",
          "name": "user",
          "type": "address"
        },
        {
          "indexed": false,
          "internalType": "bytes32",
          "name": "resourceHash",
          "type": "bytes32"
        }
      ],
      "name": "PermissionGranted",
      "type": "event"
    },
    {
      "anonymous": false,
      "inputs": [
        {
          "indexed": false,
          "internalType": "uint256",
          "name": "policyIndex",
          "type": "uint256"
        }
      ],
      "name": "PolicyAdded",
      "type": "event"
    },
    {
      "anonymous": false,
      "inputs": [
        {
          "indexed": false,
          "internalType": "uint256",
          "name": "policyIndex",
          "type": "uint256"
        }
      ],
      "name": "PolicyUpdated",
      "type": "event"
    },
    {
      "anonymous": false,
      "inputs": [
        {
          "indexed": false,
          "internalType": "address",
          "name": "addr",
          "type": "address"
        }
      ],
      "name": "RemoveUser",
      "type": "event"
    },
    {
      "anonymous": false,
      "inputs": [
        {
          "indexed": false,
          "internalType": "string",
          "name": "link",
          "type": "string"
        },
        {
          "indexed": false,
          "internalType": "enum Resources.ResourceType",
          "name": "res",
          "type": "uint8"
        },
        {
          "indexed": false,
          "internalType": "string",
          "name": "location",
          "type": "string"
        }
      ],
      "name": "UpdateResource",
      "type": "event"
    },
    {
      "anonymous": false,
      "inputs": [
        {
          "indexed": false,
          "internalType": "address",
          "name": "userAddress",
          "type": "address"
        },
        {
          "indexed": false,
          "internalType": "string",
          "name": "newName",
          "type": "string"
        },
        {
          "indexed": false,
          "internalType": "string",
          "name": "newLocation",
          "type": "string"
        },
        {
          "indexed": false,
          "internalType": "uint8",
          "name": "newRole",
          "type": "uint8"
        }
      ],
      "name": "UpdateUser",
      "type": "event"
    },
    {
      "inputs": [],
      "name": "Owner",
      "outputs": [
        {
          "internalType": "address",
          "name": "",
          "type": "address"
        }
      ],
      "stateMutability": "view",
      "type": "function"
    },
    {
      "inputs": [
        {
          "internalType": "address[]",
          "name": "_userAddresses",
          "type": "address[]"
        },
        {
          "internalType": "uint256",
          "name": "_startTime",
          "type": "uint256"
        },
        {
          "internalType": "uint256",
          "name": "_endTime",
          "type": "uint256"
        },
        {
          "internalType": "string",
          "name": "_location",
          "type": "string"
        },
        {
          "internalType": "bool",
          "name": "_allowed",
          "type": "bool"
        },
        {
          "internalType": "enum Resources.ResourceType",
          "name": "_resourceTypes",
          "type": "uint8"
        }
      ],
      "name": "addPolicy",
      "outputs": [],
      "stateMutability": "nonpayable",
      "type": "function"
    },
    {
      "inputs": [
        {
          "internalType": "string",
          "name": "_newBaseURI",
          "type": "string"
        },
        {
          "internalType": "uint8",
          "name": "resourceType",
          "type": "uint8"
        },
        {
          "internalType": "string",
          "name": "location",
          "type": "string"
        }
      ],
      "name": "addResource",
      "outputs": [],
      "stateMutability": "nonpayable",
      "type": "function"
    },
    {
      "inputs": [],
      "name": "admin",
      "outputs": [
        {
          "internalType": "address",
          "name": "",
          "type": "address"
        }
      ],
      "stateMutability": "view",
      "type": "function"
    },
    {
      "inputs": [],
      "name": "checkValidUser",
      "outputs": [
        {
          "internalType": "bool",
          "name": "",
          "type": "bool"
        }
      ],
      "stateMutability": "view",
      "type": "function"
    },
    {
      "inputs": [
        {
          "internalType": "uint64",
          "name": "ResourceId",
          "type": "uint64"
        }
      ],
      "name": "getResource",
      "outputs": [
        {
          "internalType": "string",
          "name": "",
          "type": "string"
        }
      ],
      "stateMutability": "view",
      "type": "function"
    },
    {
      "inputs": [
        {
          "internalType": "address",
          "name": "owner_address",
          "type": "address"
        },
        {
          "internalType": "uint256",
          "name": "res_index",
          "type": "uint256"
        }
      ],
      "name": "getSingleResourceHash",
      "outputs": [
        {
          "internalType": "bytes32",
          "name": "",
          "type": "bytes32"
        }
      ],
      "stateMutability": "view",
      "type": "function"
    },
    {
      "inputs": [
        {
          "internalType": "bytes32",
          "name": "resourceHash",
          "type": "bytes32"
        }
      ],
      "name": "grantPermission",
      "outputs": [
        {
          "internalType": "string",
          "name": "",
          "type": "string"
        }
      ],
      "stateMutability": "view",
      "type": "function"
    },
    {
      "inputs": [
        {
          "internalType": "address",
          "name": "",
          "type": "address"
        }
      ],
      "name": "isUser",
      "outputs": [
        {
          "internalType": "bool",
          "name": "",
          "type": "bool"
        }
      ],
      "stateMutability": "view",
      "type": "function"
    },
    {
      "inputs": [],
      "name": "listOfPolicy",
      "outputs": [
        {
          "components": [
            {
              "internalType": "address",
              "name": "owner",
              "type": "address"
            },
            {
              "components": [
                {
                  "internalType": "address[]",
                  "name": "userA",
                  "type": "address[]"
                }
              ],
              "internalType": "struct Policies.userAddresss",
              "name": "userAddress",
              "type": "tuple"
            },
            {
              "components": [
                {
                  "internalType": "uint256",
                  "name": "startTime",
                  "type": "uint256"
                },
                {
                  "internalType": "uint256",
                  "name": "endTime",
                  "type": "uint256"
                }
              ],
              "internalType": "struct Policies.Condition",
              "name": "condition",
              "type": "tuple"
            },
            {
              "internalType": "uint256",
              "name": "policyID",
              "type": "uint256"
            },
            {
              "internalType": "string",
              "name": "location",
              "type": "string"
            },
            {
              "internalType": "bool",
              "name": "allowed",
              "type": "bool"
            },
            {
              "internalType": "enum Resources.ResourceType",
              "name": "resourceType",
              "type": "uint8"
            }
          ],
          "internalType": "struct Policies.Policy[]",
          "name": "",
          "type": "tuple[]"
        }
      ],
      "stateMutability": "view",
      "type": "function"
    },
    {
      "inputs": [],
      "name": "listOfResources",
      "outputs": [
        {
          "internalType": "bytes32[]",
          "name": "",
          "type": "bytes32[]"
        }
      ],
      "stateMutability": "view",
      "type": "function"
    },
    {
      "inputs": [],
      "name": "listOfUsers",
      "outputs": [
        {
          "internalType": "address[]",
          "name": "",
          "type": "address[]"
        }
      ],
      "stateMutability": "view",
      "type": "function"
    },
    {
      "inputs": [
        {
          "internalType": "bool",
          "name": "_state",
          "type": "bool"
        }
      ],
      "name": "pause",
      "outputs": [],
      "stateMutability": "nonpayable",
      "type": "function"
    },
    {
      "inputs": [],
      "name": "paused",
      "outputs": [
        {
          "internalType": "bool",
          "name": "",
          "type": "bool"
        }
      ],
      "stateMutability": "view",
      "type": "function"
    },
    {
      "inputs": [],
      "name": "policyCounter",
      "outputs": [
        {
          "internalType": "uint8",
          "name": "",
          "type": "uint8"
        }
      ],
      "stateMutability": "view",
      "type": "function"
    },
    {
      "inputs": [
        {
          "internalType": "uint256",
          "name": "",
          "type": "uint256"
        }
      ],
      "name": "policyDetail",
      "outputs": [
        {
          "internalType": "address",
          "name": "owner",
          "type": "address"
        },
        {
          "components": [
            {
              "internalType": "address[]",
              "name": "userA",
              "type": "address[]"
            }
          ],
          "internalType": "struct Policies.userAddresss",
          "name": "userAddress",
          "type": "tuple"
        },
        {
          "components": [
            {
              "internalType": "uint256",
              "name": "startTime",
              "type": "uint256"
            },
            {
              "internalType": "uint256",
              "name": "endTime",
              "type": "uint256"
            }
          ],
          "internalType": "struct Policies.Condition",
          "name": "condition",
          "type": "tuple"
        },
        {
          "internalType": "uint256",
          "name": "policyID",
          "type": "uint256"
        },
        {
          "internalType": "string",
          "name": "location",
          "type": "string"
        },
        {
          "internalType": "bool",
          "name": "allowed",
          "type": "bool"
        },
        {
          "internalType": "enum Resources.ResourceType",
          "name": "resourceType",
          "type": "uint8"
        }
      ],
      "stateMutability": "view",
      "type": "function"
    },
    {
      "inputs": [
        {
          "internalType": "string",
          "name": "name",
          "type": "string"
        },
        {
          "internalType": "string",
          "name": "location",
          "type": "string"
        },
        {
          "internalType": "uint8",
          "name": "role",
          "type": "uint8"
        }
      ],
      "name": "registerUser",
      "outputs": [],
      "stateMutability": "nonpayable",
      "type": "function"
    },
    {
      "inputs": [
        {
          "internalType": "address",
          "name": "userAddress",
          "type": "address"
        }
      ],
      "name": "removeUser",
      "outputs": [],
      "stateMutability": "nonpayable",
      "type": "function"
    },
    {
      "inputs": [],
      "name": "resCounter",
      "outputs": [
        {
          "internalType": "uint8",
          "name": "",
          "type": "uint8"
        }
      ],
      "stateMutability": "view",
      "type": "function"
    },
    {
      "inputs": [
        {
          "internalType": "uint256",
          "name": "",
          "type": "uint256"
        }
      ],
      "name": "resourceIndex",
      "outputs": [
        {
          "internalType": "bytes32",
          "name": "",
          "type": "bytes32"
        }
      ],
      "stateMutability": "view",
      "type": "function"
    },
    {
      "inputs": [
        {
          "internalType": "bytes32",
          "name": "resourceHash",
          "type": "bytes32"
        }
      ],
      "name": "resourcesDetail",
      "outputs": [
        {
          "components": [
            {
              "internalType": "address",
              "name": "owner",
              "type": "address"
            },
            {
              "internalType": "string",
              "name": "link",
              "type": "string"
            },
            {
              "internalType": "uint256",
              "name": "res_id",
              "type": "uint256"
            },
            {
              "internalType": "uint256",
              "name": "listingTime",
              "type": "uint256"
            },
            {
              "internalType": "string",
              "name": "location",
              "type": "string"
            },
            {
              "internalType": "bool",
              "name": "isboolen",
              "type": "bool"
            },
            {
              "internalType": "enum Resources.ResourceType",
              "name": "resourceType",
              "type": "uint8"
            }
          ],
          "internalType": "struct Resources.ResourceDetail",
          "name": "",
          "type": "tuple"
        }
      ],
      "stateMutability": "view",
      "type": "function"
    },
    {
      "inputs": [
        {
          "internalType": "string",
          "name": "newName",
          "type": "string"
        },
        {
          "internalType": "string",
          "name": "newLocation",
          "type": "string"
        },
        {
          "internalType": "uint8",
          "name": "newRole",
          "type": "uint8"
        }
      ],
      "name": "updateExistingUser",
      "outputs": [],
      "stateMutability": "nonpayable",
      "type": "function"
    },
    {
      "inputs": [
        {
          "internalType": "address[]",
          "name": "_userAddresses",
          "type": "address[]"
        },
        {
          "internalType": "uint256",
          "name": "policyIndex",
          "type": "uint256"
        },
        {
          "internalType": "uint256",
          "name": "_startTime",
          "type": "uint256"
        },
        {
          "internalType": "uint256",
          "name": "_endTime",
          "type": "uint256"
        },
        {
          "internalType": "string",
          "name": "_location",
          "type": "string"
        },
        {
          "internalType": "bool",
          "name": "_allowed",
          "type": "bool"
        },
        {
          "internalType": "enum Resources.ResourceType",
          "name": "_resourceTypes",
          "type": "uint8"
        }
      ],
      "name": "updatePolicy",
      "outputs": [],
      "stateMutability": "nonpayable",
      "type": "function"
    },
    {
      "inputs": [
        {
          "internalType": "bytes32",
          "name": "resourceHash",
          "type": "bytes32"
        },
        {
          "internalType": "string",
          "name": "_newBaseURI",
          "type": "string"
        },
        {
          "internalType": "uint8",
          "name": "newResourceType",
          "type": "uint8"
        },
        {
          "internalType": "string",
          "name": "location",
          "type": "string"
        }
      ],
      "name": "updateResource",
      "outputs": [],
      "stateMutability": "nonpayable",
      "type": "function"
    },
    {
      "inputs": [],
      "name": "userCounter",
      "outputs": [
        {
          "internalType": "uint8",
          "name": "",
          "type": "uint8"
        }
      ],
      "stateMutability": "view",
      "type": "function"
    },
    {
      "inputs": [
        {
          "internalType": "address",
          "name": "",
          "type": "address"
        }
      ],
      "name": "userDetail",
      "outputs": [
        {
          "internalType": "address",
          "name": "userAddress",
          "type": "address"
        },
        {
          "internalType": "string",
          "name": "userName",
          "type": "string"
        },
        {
          "internalType": "uint256",
          "name": "userIndex",
          "type": "uint256"
        },
        {
          "internalType": "string",
          "name": "location",
          "type": "string"
        },
        {
          "internalType": "enum Users.UserRole",
          "name": "role",
          "type": "uint8"
        }
      ],
      "stateMutability": "view",
      "type": "function"
    },
    {
      "inputs": [
        {
          "internalType": "uint256",
          "name": "",
          "type": "uint256"
        }
      ],
      "name": "userIndex",
      "outputs": [
        {
          "internalType": "address",
          "name": "",
          "type": "address"
        }
      ],
      "stateMutability": "view",
      "type": "function"
    }
  ],
  "bytecode": "0x608060405260008060006101000a81548160ff021916908360ff1602179055506000600b60006101000a81548160ff021916908360ff1602179055506000600d60146101000a81548160ff02191690831515021790555034801561006257600080fd5b5033600d60006101000a81548173ffffffffffffffffffffffffffffffffffffffff021916908373ffffffffffffffffffffffffffffffffffffffff160217905550615b6680620000b46000396000f3fe608060405234801561001057600080fd5b50600436106101a95760003560e01c8063802da58d116100f9578063c37dfd6e11610097578063e2e286af11610071578063e2e286af146104d8578063f0c37a5914610508578063f851a44014610526578063fe46594b14610544576101a9565b8063c37dfd6e1461046e578063d52c1bea1461049e578063db237e83146104bc576101a9565b80639fe0be4c116100d35780639fe0be4c146103e4578063b4a99a4e14610414578063b77ad4d514610432578063bb69b8d314610450576101a9565b8063802da58d146103905780638bc70f24146103ac57806398575188146103c8576101a9565b80634209fff1116101665780635b10493f116101405780635b10493f146103045780635c975abb14610338578063628ca9f614610356578063699a323714610374576101a9565b80634209fff11461028257806348d49588146102b257806351f4a917146102ce576101a9565b806302329a29146101ae57806305376016146101ca57806319ce63dc146101fa5780632e17a93114610218578063324e40c0146102345780633b83c33c14610264575b600080fd5b6101c860048036038101906101c3919061436e565b610574565b005b6101e460048036038101906101df91906141ab565b610621565b6040516101f19190615252565b60405180910390f35b610202610683565b60405161020f91906151d1565b60405180910390f35b610232600480360381019061022d9190614453565b610711565b005b61024e60048036038101906102499190614551565b6107b2565b60405161025b9190615252565b60405180910390f35b61026c6107d6565b60405161027991906151f3565b60405180910390f35b61029c60048036038101906102979190614182565b610833565b6040516102a99190615237565b60405180910390f35b6102cc60048036038101906102c791906142a0565b610853565b005b6102e860048036038101906102e39190614551565b610946565b6040516102fb9796959493929190615153565b60405180910390f35b61031e60048036038101906103199190614182565b610b10565b60405161032f9594939291906150f2565b60405180910390f35b610340610c83565b60405161034d9190615237565b60405180910390f35b61035e610c96565b60405161036b9190615584565b60405180910390f35b61038e600480360381019061038991906143c0565b610ca9565b005b6103aa60048036038101906103a591906141e7565b610d4b565b005b6103c660048036038101906103c191906144d2565b610df1565b005b6103e260048036038101906103dd9190614182565b610e91565b005b6103fe60048036038101906103f99190614397565b610f2d565b60405161040b919061526d565b60405180910390f35b61041c61100d565b6040516104299190615046565b60405180910390f35b61043a611033565b6040516104479190615215565b60405180910390f35b6104586112f0565b6040516104659190615237565b60405180910390f35b61048860048036038101906104839190614551565b61134b565b6040516104959190615046565b60405180910390f35b6104a661138a565b6040516104b39190615584565b60405180910390f35b6104d660048036038101906104d19190614453565b61139d565b005b6104f260048036038101906104ed919061457a565b611439565b6040516104ff919061526d565b60405180910390f35b610510611a3f565b60405161051d9190615584565b60405180910390f35b61052e611a50565b60405161053b9190615046565b60405180910390f35b61055e60048036038101906105599190614397565b611a7a565b60405161056b9190615547565b60405180910390f35b600d60009054906101000a900473ffffffffffffffffffffffffffffffffffffffff1673ffffffffffffffffffffffffffffffffffffffff163373ffffffffffffffffffffffffffffffffffffffff1614610604576040517f08c379a00000000000000000000000000000000000000000000000000000000081526004016105fb906154e7565b60405180910390fd5b80600d60146101000a81548160ff02191690831515021790555050565b60006001151561062f6112f0565b151514610671576040517f08c379a0000000000000000000000000000000000000000000000000000000008152600401610668906153c7565b60405180910390fd5b61067b8383611ae0565b905092915050565b6060600380548060200260200160405190810160405280929190818152602001828054801561070757602002820191906000526020600020905b8160009054906101000a900473ffffffffffffffffffffffffffffffffffffffff1673ffffffffffffffffffffffffffffffffffffffff16815260200190600101908083116106bd575b5050505050905090565b600d60009054906101000a900473ffffffffffffffffffffffffffffffffffffffff1673ffffffffffffffffffffffffffffffffffffffff163373ffffffffffffffffffffffffffffffffffffffff1614156107a2576040517f08c379a000000000000000000000000000000000000000000000000000000000815260040161079990615507565b60405180910390fd5b6107ad838383611b3b565b505050565b600a81815481106107c257600080fd5b906000526020600020016000915090505481565b6060600115156107e46112f0565b151514610826576040517f08c379a000000000000000000000000000000000000000000000000000000000815260040161081d906153c7565b60405180910390fd5b61082e611f87565b905090565b60026020528060005260406000206000915054906101000a900460ff1681565b85600c818154811061088e577f4e487b7100000000000000000000000000000000000000000000000000000000600052603260045260246000fd5b906000526020600020906007020160000160009054906101000a900473ffffffffffffffffffffffffffffffffffffffff1673ffffffffffffffffffffffffffffffffffffffff163373ffffffffffffffffffffffffffffffffffffffff161461092d576040517f08c379a0000000000000000000000000000000000000000000000000000000008152600401610924906154a7565b60405180910390fd5b61093c88888888888888611fdf565b5050505050505050565b600c818154811061095657600080fd5b90600052602060002090600702016000915090508060000160009054906101000a900473ffffffffffffffffffffffffffffffffffffffff16908060010160405180602001604052908160008201805480602002602001604051908101604052809291908181526020018280548015610a2457602002820191906000526020600020905b8160009054906101000a900473ffffffffffffffffffffffffffffffffffffffff1673ffffffffffffffffffffffffffffffffffffffff16815260200190600101908083116109da575b50505050508152505090806002016040518060400160405290816000820154815260200160018201548152505090806004015490806005018054610a67906158b1565b80601f0160208091040260200160405190810160405280929190818152602001828054610a93906158b1565b8015610ae05780601f10610ab557610100808354040283529160200191610ae0565b820191906000526020600020905b815481529060010190602001808311610ac357829003601f168201915b5050505050908060060160009054906101000a900460ff16908060060160019054906101000a900460ff16905087565b60016020528060005260406000206000915090508060000160009054906101000a900473ffffffffffffffffffffffffffffffffffffffff1690806001018054610b59906158b1565b80601f0160208091040260200160405190810160405280929190818152602001828054610b85906158b1565b8015610bd25780601f10610ba757610100808354040283529160200191610bd2565b820191906000526020600020905b815481529060010190602001808311610bb557829003601f168201915b505050505090806002015490806003018054610bed906158b1565b80601f0160208091040260200160405190810160405280929190818152602001828054610c19906158b1565b8015610c665780601f10610c3b57610100808354040283529160200191610c66565b820191906000526020600020905b815481529060010190602001808311610c4957829003601f168201915b5050505050908060040160009054906101000a900460ff16905085565b600d60149054906101000a900460ff1681565b600460009054906101000a900460ff1681565b600d60009054906101000a900473ffffffffffffffffffffffffffffffffffffffff1673ffffffffffffffffffffffffffffffffffffffff163373ffffffffffffffffffffffffffffffffffffffff1614610d39576040517f08c379a0000000000000000000000000000000000000000000000000000000008152600401610d30906154e7565b60405180910390fd5b610d4584848484612127565b50505050565b600d60009054906101000a900473ffffffffffffffffffffffffffffffffffffffff1673ffffffffffffffffffffffffffffffffffffffff163373ffffffffffffffffffffffffffffffffffffffff1614610ddb576040517f08c379a0000000000000000000000000000000000000000000000000000000008152600401610dd2906154e7565b60405180910390fd5b610de986868686868661228a565b505050505050565b600d60009054906101000a900473ffffffffffffffffffffffffffffffffffffffff1673ffffffffffffffffffffffffffffffffffffffff163373ffffffffffffffffffffffffffffffffffffffff1614610e81576040517f08c379a0000000000000000000000000000000000000000000000000000000008152600401610e78906154e7565b60405180910390fd5b610e8c838383612516565b505050565b600d60009054906101000a900473ffffffffffffffffffffffffffffffffffffffff1673ffffffffffffffffffffffffffffffffffffffff163373ffffffffffffffffffffffffffffffffffffffff1614610f21576040517f08c379a0000000000000000000000000000000000000000000000000000000008152600401610f18906154e7565b60405180910390fd5b610f2a8161292e565b50565b606060011515610f3b6112f0565b151514610f7d576040517f08c379a0000000000000000000000000000000000000000000000000000000008152600401610f74906153c7565b60405180910390fd5b6000610f893384612d1e565b90508060a00151610fcf576040517f08c379a0000000000000000000000000000000000000000000000000000000008152600401610fc690615467565b60405180910390fd5b6040518060400160405280601d81526020017f5375636365737366756c6c79205065726d697373696f6e204772616e74000000815250915050919050565b600d60009054906101000a900473ffffffffffffffffffffffffffffffffffffffff1681565b6060600c805480602002602001604051908101604052809291908181526020016000905b828210156112e757838290600052602060002090600702016040518060e00160405290816000820160009054906101000a900473ffffffffffffffffffffffffffffffffffffffff1673ffffffffffffffffffffffffffffffffffffffff1673ffffffffffffffffffffffffffffffffffffffff168152602001600182016040518060200160405290816000820180548060200260200160405190810160405280929190818152602001828054801561116557602002820191906000526020600020905b8160009054906101000a900473ffffffffffffffffffffffffffffffffffffffff1673ffffffffffffffffffffffffffffffffffffffff168152602001906001019080831161111b575b505050505081525050815260200160028201604051806040016040529081600082015481526020016001820154815250508152602001600482015481526020016005820180546111b4906158b1565b80601f01602080910402602001604051908101604052809291908181526020018280546111e0906158b1565b801561122d5780601f106112025761010080835404028352916020019161122d565b820191906000526020600020905b81548152906001019060200180831161121057829003601f168201915b505050505081526020016006820160009054906101000a900460ff161515151581526020016006820160019054906101000a900460ff16600281111561129c577f4e487b7100000000000000000000000000000000000000000000000000000000600052602160045260246000fd5b60028111156112d4577f4e487b7100000000000000000000000000000000000000000000000000000000600052602160045260246000fd5b8152505081526020019060010190611057565b50505050905090565b600060011515600260003373ffffffffffffffffffffffffffffffffffffffff1673ffffffffffffffffffffffffffffffffffffffff16815260200190815260200160002060009054906101000a900460ff16151514905090565b6003818154811061135b57600080fd5b906000526020600020016000915054906101000a900473ffffffffffffffffffffffffffffffffffffffff1681565b600b60009054906101000a900460ff1681565b600260003373ffffffffffffffffffffffffffffffffffffffff1673ffffffffffffffffffffffffffffffffffffffff16815260200190815260200160002060009054906101000a900460ff16611429576040517f08c379a000000000000000000000000000000000000000000000000000000000815260040161142090615367565b60405180910390fd5b61143483838361308e565b505050565b6060600260003373ffffffffffffffffffffffffffffffffffffffff1673ffffffffffffffffffffffffffffffffffffffff16815260200190815260200160002060009054906101000a900460ff166114c7576040517f08c379a00000000000000000000000000000000000000000000000000000000081526004016114be90615367565b60405180910390fd5b600060096000600d60009054906101000a900473ffffffffffffffffffffffffffffffffffffffff1673ffffffffffffffffffffffffffffffffffffffff1673ffffffffffffffffffffffffffffffffffffffff16815260200190815260200160002060008467ffffffffffffffff16815260200190815260200160002054905061155181610f2d565b5060006008600083815260200190815260200160002060050160019054906101000a900460ff1690506000600160003373ffffffffffffffffffffffffffffffffffffffff1673ffffffffffffffffffffffffffffffffffffffff16815260200190815260200160002060040160009054906101000a900460ff1690506008600060096000600d60009054906101000a900473ffffffffffffffffffffffffffffffffffffffff1673ffffffffffffffffffffffffffffffffffffffff1673ffffffffffffffffffffffffffffffffffffffff16815260200190815260200160002060008867ffffffffffffffff16815260200190815260200160002054815260200190815260200160002060040160405161166d9190615003565b6040518091039020600160003373ffffffffffffffffffffffffffffffffffffffff1673ffffffffffffffffffffffffffffffffffffffff1681526020019081526020016000206003016040516116c49190615003565b60405180910390201461170c576040517f08c379a000000000000000000000000000000000000000000000000000000000815260040161170390615447565b60405180910390fd5b60006002811115611746577f4e487b7100000000000000000000000000000000000000000000000000000000600052602160045260246000fd5b81600281111561177f577f4e487b7100000000000000000000000000000000000000000000000000000000600052602160045260246000fd5b14806117fb5750600160028111156117c0577f4e487b7100000000000000000000000000000000000000000000000000000000600052602160045260246000fd5b8160028111156117f9577f4e487b7100000000000000000000000000000000000000000000000000000000600052602160045260246000fd5b145b80611875575060028081111561183a577f4e487b7100000000000000000000000000000000000000000000000000000000600052602160045260246000fd5b816002811115611873577f4e487b7100000000000000000000000000000000000000000000000000000000600052602160045260246000fd5b145b15611a1b57600060028111156118b4577f4e487b7100000000000000000000000000000000000000000000000000000000600052602160045260246000fd5b8260028111156118ed577f4e487b7100000000000000000000000000000000000000000000000000000000600052602160045260246000fd5b1415611905576118fb6132ee565b9350505050611a3a565b6001600281111561193f577f4e487b7100000000000000000000000000000000000000000000000000000000600052602160045260246000fd5b826002811115611978577f4e487b7100000000000000000000000000000000000000000000000000000000600052602160045260246000fd5b141561199057611986613380565b9350505050611a3a565b6002808111156119c9577f4e487b7100000000000000000000000000000000000000000000000000000000600052602160045260246000fd5b826002811115611a02577f4e487b7100000000000000000000000000000000000000000000000000000000600052602160045260246000fd5b1415611a1a57611a10613412565b9350505050611a3a565b5b604051806060016040528060228152602001615b0f6022913993505050505b919050565b60008054906101000a900460ff1681565b6000600d60009054906101000a900473ffffffffffffffffffffffffffffffffffffffff16905090565b611a82613d31565b60011515611a8e6112f0565b151514611ad0576040517f08c379a0000000000000000000000000000000000000000000000000000000008152600401611ac7906153c7565b60405180910390fd5b611ad9826134a4565b9050919050565b6000600960008473ffffffffffffffffffffffffffffffffffffffff1673ffffffffffffffffffffffffffffffffffffffff168152602001908152602001600020600083815260200190815260200160002054905092915050565b60001515600260003373ffffffffffffffffffffffffffffffffffffffff1673ffffffffffffffffffffffffffffffffffffffff16815260200190815260200160002060009054906101000a900460ff16151514611bce576040517f08c379a0000000000000000000000000000000000000000000000000000000008152600401611bc5906154c7565b60405180910390fd5b600073ffffffffffffffffffffffffffffffffffffffff16600160003373ffffffffffffffffffffffffffffffffffffffff1673ffffffffffffffffffffffffffffffffffffffff16815260200190815260200160002060000160009054906101000a900473ffffffffffffffffffffffffffffffffffffffff1673ffffffffffffffffffffffffffffffffffffffff1614611c9f576040517f08c379a0000000000000000000000000000000000000000000000000000000008152600401611c96906154c7565b60405180910390fd5b6000611caa82613701565b90506040518060a001604052803373ffffffffffffffffffffffffffffffffffffffff16815260200185815260200160008054906101000a900460ff1660ff168152602001848152602001826002811115611d2e577f4e487b7100000000000000000000000000000000000000000000000000000000600052602160045260246000fd5b815250600160003373ffffffffffffffffffffffffffffffffffffffff1673ffffffffffffffffffffffffffffffffffffffff16815260200190815260200160002060008201518160000160006101000a81548173ffffffffffffffffffffffffffffffffffffffff021916908373ffffffffffffffffffffffffffffffffffffffff1602179055506020820151816001019080519060200190611dd3929190613dbe565b50604082015181600201556060820151816003019080519060200190611dfa929190613dbe565b5060808201518160040160006101000a81548160ff02191690836002811115611e4c577f4e487b7100000000000000000000000000000000000000000000000000000000600052602160045260246000fd5b021790555090505060008081819054906101000a900460ff1680929190611e729061592c565b91906101000a81548160ff021916908360ff160217905550506003339080600181540180825580915050600190039060005260206000200160009091909190916101000a81548173ffffffffffffffffffffffffffffffffffffffff021916908373ffffffffffffffffffffffffffffffffffffffff1602179055506001600260003373ffffffffffffffffffffffffffffffffffffffff1673ffffffffffffffffffffffffffffffffffffffff16815260200190815260200160002060006101000a81548160ff0219169083151502179055507f04fa57b893b1c3dc318e342db752c035852d43e24481a0e21cce7bd5877f9617338483604051611f7993929190615061565b60405180910390a150505050565b6060600a805480602002602001604051908101604052809291908181526020018280548015611fd557602002820191906000526020600020905b815481526020019060010190808311611fc1575b5050505050905090565b6000600c878154811061201b577f4e487b7100000000000000000000000000000000000000000000000000000000600052603260045260246000fd5b9060005260206000209060070201905087816001016000019080519060200190612046929190613e44565b5085816002016000018190555084816002016001018190555083816005019080519060200190612077929190613dbe565b50828160060160006101000a81548160ff021916908315150217905550818160060160016101000a81548160ff021916908360028111156120e1577f4e487b7100000000000000000000000000000000000000000000000000000000600052602160045260246000fd5b02179055507f912ce63c438aca9d2f50d1d12de5b42efbcc84ce223b08122e8c2e3c000ca1f8876040516121159190615569565b60405180910390a15050505050505050565b600060086000868152602001908152602001600020600301541415612181576040517f08c379a000000000000000000000000000000000000000000000000000000000815260040161217890615487565b60405180910390fd5b600061218c8361378d565b9050836008600087815260200190815260200160002060010190805190602001906121b8929190613dbe565b50806008600087815260200190815260200160002060050160016101000a81548160ff02191690836002811115612218577f4e487b7100000000000000000000000000000000000000000000000000000000600052602160045260246000fd5b021790555081600860008781526020019081526020016000206004019080519060200190612247929190613dbe565b507fb141734cc69d73478774b47c96f0ea66bad4b9b710bea5940879a52130b792b284828460405161227b9392919061528f565b60405180910390a15050505050565b60006040518060e001604052803373ffffffffffffffffffffffffffffffffffffffff16815260200160405180602001604052808a81525081526020016040518060400160405280898152602001888152508152602001600b600081819054906101000a900460ff16809291906123009061592c565b91906101000a81548160ff021916908360ff16021790555060ff1681526020018581526020018415158152602001836002811115612367577f4e487b7100000000000000000000000000000000000000000000000000000000600052602160045260246000fd5b8152509050600c81908060018154018082558091505060019003906000526020600020906007020160009091909190915060008201518160000160006101000a81548173ffffffffffffffffffffffffffffffffffffffff021916908373ffffffffffffffffffffffffffffffffffffffff1602179055506020820151816001016000820151816000019080519060200190612404929190613e44565b5050506040820151816002016000820151816000015560208201518160010155505060608201518160040155608082015181600501908051906020019061244c929190613dbe565b5060a08201518160060160006101000a81548160ff02191690831515021790555060c08201518160060160016101000a81548160ff021916908360028111156124be577f4e487b7100000000000000000000000000000000000000000000000000000000600052602160045260246000fd5b021790555050507f024a1db391c63d350ba33664c84386c69b2f4891094f69f737890d6cba9603fb6001600c805490506124f8919061576c565b6040516125059190615569565b60405180910390a150505050505050565b6000824260405160200161252b92919061501a565b604051602081830303815290604052805190602001209050600060086000838152602001908152602001600020600301541461259c576040517f08c379a0000000000000000000000000000000000000000000000000000000008152600401612593906153a7565b60405180910390fd5b60006125a78461378d565b90506001600460009054906101000a900460ff166125c59190615735565b600460006101000a81548160ff021916908360ff1602179055506040518060e001604052803373ffffffffffffffffffffffffffffffffffffffff168152602001868152602001600460009054906101000a900460ff1660ff168152602001428152602001848152602001600115158152602001826002811115612672577f4e487b7100000000000000000000000000000000000000000000000000000000600052602160045260246000fd5b8152506008600084815260200190815260200160002060008201518160000160006101000a81548173ffffffffffffffffffffffffffffffffffffffff021916908373ffffffffffffffffffffffffffffffffffffffff16021790555060208201518160010190805190602001906126eb929190613dbe565b506040820151816002015560608201518160030155608082015181600401908051906020019061271c929190613dbe565b5060a08201518160050160006101000a81548160ff02191690831515021790555060c08201518160050160016101000a81548160ff0219169083600281111561278e577f4e487b7100000000000000000000000000000000000000000000000000000000600052602160045260246000fd5b021790555090505081600960003373ffffffffffffffffffffffffffffffffffffffff1673ffffffffffffffffffffffffffffffffffffffff1681526020019081526020016000206000600460009054906101000a900460ff1660ff1681526020019081526020016000208190555060008460ff16141561282557846005908051906020019061281f929190613dbe565b506128b2565b60018460ff16141561284d578460069080519060200190612847929190613dbe565b506128b1565b60028460ff16141561287557846007908051906020019061286f929190613dbe565b506128b0565b6040517f08c379a00000000000000000000000000000000000000000000000000000000081526004016128a790615347565b60405180910390fd5b5b5b600a8290806001815401808255809150506001900390600052602060002001600090919091909150557f1f8e53197bedbff8bec0ff8f389356dd174f36b1f1c731490be0c024a22ecfdc8582600460009054906101000a900460ff168660405161291f94939291906152d4565b60405180910390a15050505050565b600073ffffffffffffffffffffffffffffffffffffffff16600160008373ffffffffffffffffffffffffffffffffffffffff1673ffffffffffffffffffffffffffffffffffffffff16815260200190815260200160002060000160009054906101000a900473ffffffffffffffffffffffffffffffffffffffff1673ffffffffffffffffffffffffffffffffffffffff161415612a00576040517f08c379a00000000000000000000000000000000000000000000000000000000081526004016129f790615527565b60405180910390fd5b600160008273ffffffffffffffffffffffffffffffffffffffff1673ffffffffffffffffffffffffffffffffffffffff168152602001908152602001600020600080820160006101000a81549073ffffffffffffffffffffffffffffffffffffffff0219169055600182016000612a779190613ece565b6002820160009055600382016000612a8f9190613ece565b6004820160006101000a81549060ff0219169055505060005b600380549050811015612ce3578173ffffffffffffffffffffffffffffffffffffffff1660038281548110612b06577f4e487b7100000000000000000000000000000000000000000000000000000000600052603260045260246000fd5b9060005260206000200160009054906101000a900473ffffffffffffffffffffffffffffffffffffffff1673ffffffffffffffffffffffffffffffffffffffff161415612cd0576001600380549050612b5f919061576c565b8114612c5e5760036001600380549050612b79919061576c565b81548110612bb0577f4e487b7100000000000000000000000000000000000000000000000000000000600052603260045260246000fd5b9060005260206000200160009054906101000a900473ffffffffffffffffffffffffffffffffffffffff1660038281548110612c15577f4e487b7100000000000000000000000000000000000000000000000000000000600052603260045260246000fd5b9060005260206000200160006101000a81548173ffffffffffffffffffffffffffffffffffffffff021916908373ffffffffffffffffffffffffffffffffffffffff1602179055505b6003805480612c96577f4e487b7100000000000000000000000000000000000000000000000000000000600052603160045260246000fd5b6001900381819060005260206000200160006101000a81549073ffffffffffffffffffffffffffffffffffffffff02191690559055612ce3565b8080612cdb906158e3565b915050612aa8565b507f0ad8e54ac59bf2d8a7a1474c1af503b593553cf4fcaaffdef04ab5249f89762b81604051612d139190615046565b60405180910390a150565b612d26613f0e565b60005b600c8054905081101561304c576000600c8281548110612d72577f4e487b7100000000000000000000000000000000000000000000000000000000600052603260045260246000fd5b90600052602060002090600702016040518060e00160405290816000820160009054906101000a900473ffffffffffffffffffffffffffffffffffffffff1673ffffffffffffffffffffffffffffffffffffffff1673ffffffffffffffffffffffffffffffffffffffff1681526020016001820160405180602001604052908160008201805480602002602001604051908101604052809291908181526020018280548015612e7657602002820191906000526020600020905b8160009054906101000a900473ffffffffffffffffffffffffffffffffffffffff1673ffffffffffffffffffffffffffffffffffffffff1681526020019060010190808311612e2c575b50505050508152505081526020016002820160405180604001604052908160008201548152602001600182015481525050815260200160048201548152602001600582018054612ec5906158b1565b80601f0160208091040260200160405190810160405280929190818152602001828054612ef1906158b1565b8015612f3e5780601f10612f1357610100808354040283529160200191612f3e565b820191906000526020600020905b815481529060010190602001808311612f2157829003601f168201915b505050505081526020016006820160009054906101000a900460ff161515151581526020016006820160019054906101000a900460ff166002811115612fad577f4e487b7100000000000000000000000000000000000000000000000000000000600052602160045260246000fd5b6002811115612fe5577f4e487b7100000000000000000000000000000000000000000000000000000000600052602160045260246000fd5b815250509050612ff58582613819565b801561300657506130058161390d565b5b80156130185750613017818561393b565b5b8015613029575061302884613966565b5b15613038578092505050613088565b508080613044906158e3565b915050612d29565b506040517f08c379a000000000000000000000000000000000000000000000000000000000815260040161307f90615387565b60405180910390fd5b92915050565b600073ffffffffffffffffffffffffffffffffffffffff16600160003373ffffffffffffffffffffffffffffffffffffffff1673ffffffffffffffffffffffffffffffffffffffff16815260200190815260200160002060000160009054906101000a900473ffffffffffffffffffffffffffffffffffffffff1673ffffffffffffffffffffffffffffffffffffffff161415613160576040517f08c379a000000000000000000000000000000000000000000000000000000000815260040161315790615527565b60405180910390fd5b600061316b82613701565b905083600160003373ffffffffffffffffffffffffffffffffffffffff1673ffffffffffffffffffffffffffffffffffffffff16815260200190815260200160002060010190805190602001906131c3929190613dbe565b5082600160003373ffffffffffffffffffffffffffffffffffffffff1673ffffffffffffffffffffffffffffffffffffffff168152602001908152602001600020600301908051906020019061321a929190613dbe565b5080600160003373ffffffffffffffffffffffffffffffffffffffff1673ffffffffffffffffffffffffffffffffffffffff16815260200190815260200160002060040160006101000a81548160ff021916908360028111156132a6577f4e487b7100000000000000000000000000000000000000000000000000000000600052602160045260246000fd5b02179055507f1ed2f4ce3f8d3c22abad8c669ce2b7e4226c9734ae5135d7b72211132e43eeaa338585856040516132e0949392919061509f565b60405180910390a150505050565b6060600580546132fd906158b1565b80601f0160208091040260200160405190810160405280929190818152602001828054613329906158b1565b80156133765780601f1061334b57610100808354040283529160200191613376565b820191906000526020600020905b81548152906001019060200180831161335957829003601f168201915b5050505050905090565b60606006805461338f906158b1565b80601f01602080910402602001604051908101604052809291908181526020018280546133bb906158b1565b80156134085780601f106133dd57610100808354040283529160200191613408565b820191906000526020600020905b8154815290600101906020018083116133eb57829003601f168201915b5050505050905090565b606060078054613421906158b1565b80601f016020809104026020016040519081016040528092919081815260200182805461344d906158b1565b801561349a5780601f1061346f5761010080835404028352916020019161349a565b820191906000526020600020905b81548152906001019060200180831161347d57829003601f168201915b5050505050905090565b6134ac613d31565b600860008381526020019081526020016000206040518060e00160405290816000820160009054906101000a900473ffffffffffffffffffffffffffffffffffffffff1673ffffffffffffffffffffffffffffffffffffffff1673ffffffffffffffffffffffffffffffffffffffff168152602001600182018054613530906158b1565b80601f016020809104026020016040519081016040528092919081815260200182805461355c906158b1565b80156135a95780601f1061357e576101008083540402835291602001916135a9565b820191906000526020600020905b81548152906001019060200180831161358c57829003601f168201915b5050505050815260200160028201548152602001600382015481526020016004820180546135d6906158b1565b80601f0160208091040260200160405190810160405280929190818152602001828054613602906158b1565b801561364f5780601f106136245761010080835404028352916020019161364f565b820191906000526020600020905b81548152906001019060200180831161363257829003601f168201915b505050505081526020016005820160009054906101000a900460ff161515151581526020016005820160019054906101000a900460ff1660028111156136be577f4e487b7100000000000000000000000000000000000000000000000000000000600052602160045260246000fd5b60028111156136f6577f4e487b7100000000000000000000000000000000000000000000000000000000600052602160045260246000fd5b815250509050919050565b600060028260ff16111561374a576040517f08c379a000000000000000000000000000000000000000000000000000000000815260040161374190615427565b60405180910390fd5b8160ff166002811115613786577f4e487b7100000000000000000000000000000000000000000000000000000000600052602160045260246000fd5b9050919050565b600060028260ff1611156137d6576040517f08c379a00000000000000000000000000000000000000000000000000000000081526004016137cd90615407565b60405180910390fd5b8160ff166002811115613812577f4e487b7100000000000000000000000000000000000000000000000000000000600052602160045260246000fd5b9050919050565b600080600090505b826020015160000151518110156138cb578373ffffffffffffffffffffffffffffffffffffffff16836020015160000151828151811061388a577f4e487b7100000000000000000000000000000000000000000000000000000000600052603260045260246000fd5b602002602001015173ffffffffffffffffffffffffffffffffffffffff1614156138b8576001915050613907565b80806138c3906158e3565b915050613821565b506040517f08c379a00000000000000000000000000000000000000000000000000000000081526004016138fe90615327565b60405180910390fd5b92915050565b600080429050826040015160000151811015801561393357508260400151602001518111155b915050919050565b6000613946826134a4565b608001518051906020012083608001518051906020012014905092915050565b6000806008600084815260200190815260200160002060050160019054906101000a900460ff16905060005b600c80549050811015613cf0576000600c82815481106139db577f4e487b7100000000000000000000000000000000000000000000000000000000600052603260045260246000fd5b90600052602060002090600702016040518060e00160405290816000820160009054906101000a900473ffffffffffffffffffffffffffffffffffffffff1673ffffffffffffffffffffffffffffffffffffffff1673ffffffffffffffffffffffffffffffffffffffff1681526020016001820160405180602001604052908160008201805480602002602001604051908101604052809291908181526020018280548015613adf57602002820191906000526020600020905b8160009054906101000a900473ffffffffffffffffffffffffffffffffffffffff1673ffffffffffffffffffffffffffffffffffffffff1681526020019060010190808311613a95575b50505050508152505081526020016002820160405180604001604052908160008201548152602001600182015481525050815260200160048201548152602001600582018054613b2e906158b1565b80601f0160208091040260200160405190810160405280929190818152602001828054613b5a906158b1565b8015613ba75780601f10613b7c57610100808354040283529160200191613ba7565b820191906000526020600020905b815481529060010190602001808311613b8a57829003601f168201915b505050505081526020016006820160009054906101000a900460ff161515151581526020016006820160019054906101000a900460ff166002811115613c16577f4e487b7100000000000000000000000000000000000000000000000000000000600052602160045260246000fd5b6002811115613c4e577f4e487b7100000000000000000000000000000000000000000000000000000000600052602160045260246000fd5b815250509050826002811115613c8d577f4e487b7100000000000000000000000000000000000000000000000000000000600052602160045260246000fd5b8160c001516002811115613cca577f4e487b7100000000000000000000000000000000000000000000000000000000600052602160045260246000fd5b1415613cdc5760019350505050613d2c565b508080613ce8906158e3565b915050613992565b506040517f08c379a0000000000000000000000000000000000000000000000000000000008152600401613d23906153e7565b60405180910390fd5b919050565b6040518060e00160405280600073ffffffffffffffffffffffffffffffffffffffff1681526020016060815260200160008152602001600081526020016060815260200160001515815260200160006002811115613db8577f4e487b7100000000000000000000000000000000000000000000000000000000600052602160045260246000fd5b81525090565b828054613dca906158b1565b90600052602060002090601f016020900481019282613dec5760008555613e33565b82601f10613e0557805160ff1916838001178555613e33565b82800160010185558215613e33579182015b82811115613e32578251825591602001919060010190613e17565b5b509050613e409190613fa7565b5090565b828054828255906000526020600020908101928215613ebd579160200282015b82811115613ebc5782518260006101000a81548173ffffffffffffffffffffffffffffffffffffffff021916908373ffffffffffffffffffffffffffffffffffffffff16021790555091602001919060010190613e64565b5b509050613eca9190613fa7565b5090565b508054613eda906158b1565b6000825580601f10613eec5750613f0b565b601f016020900490600052602060002090810190613f0a9190613fa7565b5b50565b6040518060e00160405280600073ffffffffffffffffffffffffffffffffffffffff168152602001613f3e613fc4565b8152602001613f4b613fd7565b8152602001600081526020016060815260200160001515815260200160006002811115613fa1577f4e487b7100000000000000000000000000000000000000000000000000000000600052602160045260246000fd5b81525090565b5b80821115613fc0576000816000905550600101613fa8565b5090565b6040518060200160405280606081525090565b604051806040016040528060008152602001600081525090565b6000614004613fff846155d0565b61559f565b9050808382526020820190508285602086028201111561402357600080fd5b60005b858110156140535781614039888261409b565b845260208401935060208301925050600181019050614026565b5050509392505050565b600061407061406b846155fc565b61559f565b90508281526020810184848401111561408857600080fd5b61409384828561586f565b509392505050565b6000813590506140aa81615a74565b92915050565b600082601f8301126140c157600080fd5b81356140d1848260208601613ff1565b91505092915050565b6000813590506140e981615a8b565b92915050565b6000813590506140fe81615aa2565b92915050565b60008135905061411381615ab9565b92915050565b600082601f83011261412a57600080fd5b813561413a84826020860161405d565b91505092915050565b60008135905061415281615ac9565b92915050565b60008135905061416781615ae0565b92915050565b60008135905061417c81615af7565b92915050565b60006020828403121561419457600080fd5b60006141a28482850161409b565b91505092915050565b600080604083850312156141be57600080fd5b60006141cc8582860161409b565b92505060206141dd85828601614143565b9150509250929050565b60008060008060008060c0878903121561420057600080fd5b600087013567ffffffffffffffff81111561421a57600080fd5b61422689828a016140b0565b965050602061423789828a01614143565b955050604061424889828a01614143565b945050606087013567ffffffffffffffff81111561426557600080fd5b61427189828a01614119565b935050608061428289828a016140da565b92505060a061429389828a01614104565b9150509295509295509295565b600080600080600080600060e0888a0312156142bb57600080fd5b600088013567ffffffffffffffff8111156142d557600080fd5b6142e18a828b016140b0565b97505060206142f28a828b01614143565b96505060406143038a828b01614143565b95505060606143148a828b01614143565b945050608088013567ffffffffffffffff81111561433157600080fd5b61433d8a828b01614119565b93505060a061434e8a828b016140da565b92505060c061435f8a828b01614104565b91505092959891949750929550565b60006020828403121561438057600080fd5b600061438e848285016140da565b91505092915050565b6000602082840312156143a957600080fd5b60006143b7848285016140ef565b91505092915050565b600080600080608085870312156143d657600080fd5b60006143e4878288016140ef565b945050602085013567ffffffffffffffff81111561440157600080fd5b61440d87828801614119565b935050604061441e8782880161416d565b925050606085013567ffffffffffffffff81111561443b57600080fd5b61444787828801614119565b91505092959194509250565b60008060006060848603121561446857600080fd5b600084013567ffffffffffffffff81111561448257600080fd5b61448e86828701614119565b935050602084013567ffffffffffffffff8111156144ab57600080fd5b6144b786828701614119565b92505060406144c88682870161416d565b9150509250925092565b6000806000606084860312156144e757600080fd5b600084013567ffffffffffffffff81111561450157600080fd5b61450d86828701614119565b935050602061451e8682870161416d565b925050604084013567ffffffffffffffff81111561453b57600080fd5b61454786828701614119565b9150509250925092565b60006020828403121561456357600080fd5b600061457184828501614143565b91505092915050565b60006020828403121561458c57600080fd5b600061459a84828501614158565b91505092915050565b60006145af83836145e7565b60208301905092915050565b60006145c783836147b2565b60208301905092915050565b60006145df8383614dfe565b905092915050565b6145f0816157a0565b82525050565b6145ff816157a0565b82525050565b600061461082615671565b61461a81856156c4565b93506146258361562c565b8060005b8381101561465657815161463d88826145a3565b97506146488361569d565b925050600181019050614629565b5085935050505092915050565b600061466e82615671565b61467881856156d5565b93506146838361562c565b8060005b838110156146b457815161469b88826145a3565b97506146a68361569d565b925050600181019050614687565b5085935050505092915050565b60006146cc8261567c565b6146d681856156e6565b93506146e18361563c565b8060005b838110156147125781516146f988826145bb565b9750614704836156aa565b9250506001810190506146e5565b5085935050505092915050565b600061472a82615687565b61473481856156f7565b9350836020820285016147468561564c565b8060005b85811015614782578484038952815161476385826145d3565b945061476e836156b7565b925060208a0199505060018101905061474a565b50829750879550505050505092915050565b61479d816157b2565b82525050565b6147ac816157b2565b82525050565b6147bb816157be565b82525050565b6147ca816157be565b82525050565b600081546147dd816158b1565b6147e78186615708565b94506001821660008114614802576001811461481357614846565b60ff19831686528186019350614846565b61481c8561565c565b60005b8381101561483e5781548189015260018201915060208101905061481f565b838801955050505b50505092915050565b61485881615839565b82525050565b61486781615839565b82525050565b6148768161584b565b82525050565b600061488782615692565b6148918185615713565b93506148a181856020860161587e565b6148aa81615a2e565b840191505092915050565b60006148c082615692565b6148ca8185615724565b93506148da81856020860161587e565b6148e381615a2e565b840191505092915050565b60006148fb601783615724565b91507f4e6f2055736572206d6174636820496e20506f6c6963790000000000000000006000830152602082019050919050565b600061493b600983615724565b91507f4e6f7420466f756e6400000000000000000000000000000000000000000000006000830152602082019050919050565b600061497b602483615724565b91507f4e6f742061207265676973746572656420757365722c596f752063616e6e6f7460008301527f20736565000000000000000000000000000000000000000000000000000000006020830152604082019050919050565b60006149e1601883615724565b91507f4e6f206d61746368696e6720706f6c69637920666f756e6400000000000000006000830152602082019050919050565b6000614a21602a83615724565b91507f5265736f757263652077697468207468652073616d65206e616d6520616c726560008301527f61647920657869737473000000000000000000000000000000000000000000006020830152604082019050919050565b6000614a87601583615724565b91507f4e6f7420612072656769737465726564207573657200000000000000000000006000830152602082019050919050565b6000614ac7601683615724565b91507f5265736f7563657320617265206e6f74206d61746368000000000000000000006000830152602082019050919050565b6000614b07601583615724565b91507f496e76616c6964207265736f75726365207479706500000000000000000000006000830152602082019050919050565b6000614b47601183615724565b91507f496e76616c6964207573657220726f6c650000000000000000000000000000006000830152602082019050919050565b6000614b87602883615724565b91507f5573657220616e64207265736f75726365206c6f636174696f6e7320646f206e60008301527f6f74206d617463680000000000000000000000000000000000000000000000006020830152604082019050919050565b6000614bed601183615724565b91507f5065726d697373696f6e2064656e6965640000000000000000000000000000006000830152602082019050919050565b6000614c2d601783615724565b91507f5265736f7572636520646f6573206e6f742065786973740000000000000000006000830152602082019050919050565b6000614c6d601483615724565b91507f4e6f742074686520706f6c696379206f776e65720000000000000000000000006000830152602082019050919050565b6000614cad601783615724565b91507f5573657220616c726561647920726567697374657265640000000000000000006000830152602082019050919050565b6000614ced601e83615724565b91507f596f7520617265204e6f742074686520636f6e7472616374206f776e657200006000830152602082019050919050565b6000614d2d601f83615724565b91507f436f6e7472616374206f776e65722063616e6e6f7420616464207573657273006000830152602082019050919050565b6000614d6d601383615724565b91507f5573657220646f6573206e6f74206578697374000000000000000000000000006000830152602082019050919050565b604082016000820151614db66000850182614f99565b506020820151614dc96020850182614f99565b50505050565b604082016000820151614de56000850182614f99565b506020820151614df86020850182614f99565b50505050565b600061010083016000830151614e1760008601826145e7565b5060208301518482036020860152614e2f8282614f45565b9150506040830151614e446040860182614da0565b506060830151614e576080860182614f99565b50608083015184820360a0860152614e6f828261487c565b91505060a0830151614e8460c0860182614794565b5060c0830151614e9760e086018261484f565b508091505092915050565b600060e083016000830151614eba60008601826145e7565b5060208301518482036020860152614ed2828261487c565b9150506040830151614ee76040860182614f99565b506060830151614efa6060860182614f99565b5060808301518482036080860152614f12828261487c565b91505060a0830151614f2760a0860182614794565b5060c0830151614f3a60c086018261484f565b508091505092915050565b60006020830160008301518482036000860152614f628282614605565b9150508091505092915050565b60006020830160008301518482036000860152614f8c8282614605565b9150508091505092915050565b614fa28161580e565b82525050565b614fb18161580e565b82525050565b614fc8614fc38261580e565b615956565b82525050565b614fd78161585d565b82525050565b614fe68161582c565b82525050565b614ffd614ff88261582c565b615960565b82525050565b600061500f82846147d0565b915081905092915050565b60006150268285614fec565b6001820191506150368284614fb7565b6020820191508190509392505050565b600060208201905061505b60008301846145f6565b92915050565b600060608201905061507660008301866145f6565b818103602083015261508881856148b5565b9050615097604083018461486d565b949350505050565b60006080820190506150b460008301876145f6565b81810360208301526150c681866148b5565b905081810360408301526150da81856148b5565b90506150e96060830184614fdd565b95945050505050565b600060a08201905061510760008301886145f6565b818103602083015261511981876148b5565b90506151286040830186614fa8565b818103606083015261513a81856148b5565b9050615149608083018461486d565b9695505050505050565b600061010082019050615169600083018a6145f6565b818103602083015261517b8189614f6f565b905061518a6040830188614dcf565b6151976080830187614fa8565b81810360a08301526151a981866148b5565b90506151b860c08301856147a3565b6151c560e083018461485e565b98975050505050505050565b600060208201905081810360008301526151eb8184614663565b905092915050565b6000602082019050818103600083015261520d81846146c1565b905092915050565b6000602082019050818103600083015261522f818461471f565b905092915050565b600060208201905061524c60008301846147a3565b92915050565b600060208201905061526760008301846147c1565b92915050565b6000602082019050818103600083015261528781846148b5565b905092915050565b600060608201905081810360008301526152a981866148b5565b90506152b8602083018561485e565b81810360408301526152ca81846148b5565b9050949350505050565b600060808201905081810360008301526152ee81876148b5565b90506152fd602083018661485e565b61530a6040830185614fce565b818103606083015261531c81846148b5565b905095945050505050565b60006020820190508181036000830152615340816148ee565b9050919050565b600060208201905081810360008301526153608161492e565b9050919050565b600060208201905081810360008301526153808161496e565b9050919050565b600060208201905081810360008301526153a0816149d4565b9050919050565b600060208201905081810360008301526153c081614a14565b9050919050565b600060208201905081810360008301526153e081614a7a565b9050919050565b6000602082019050818103600083015261540081614aba565b9050919050565b6000602082019050818103600083015261542081614afa565b9050919050565b6000602082019050818103600083015261544081614b3a565b9050919050565b6000602082019050818103600083015261546081614b7a565b9050919050565b6000602082019050818103600083015261548081614be0565b9050919050565b600060208201905081810360008301526154a081614c20565b9050919050565b600060208201905081810360008301526154c081614c60565b9050919050565b600060208201905081810360008301526154e081614ca0565b9050919050565b6000602082019050818103600083015261550081614ce0565b9050919050565b6000602082019050818103600083015261552081614d20565b9050919050565b6000602082019050818103600083015261554081614d60565b9050919050565b600060208201905081810360008301526155618184614ea2565b905092915050565b600060208201905061557e6000830184614fa8565b92915050565b60006020820190506155996000830184614fdd565b92915050565b6000604051905081810181811067ffffffffffffffff821117156155c6576155c56159ff565b5b8060405250919050565b600067ffffffffffffffff8211156155eb576155ea6159ff565b5b602082029050602081019050919050565b600067ffffffffffffffff821115615617576156166159ff565b5b601f19601f8301169050602081019050919050565b6000819050602082019050919050565b6000819050602082019050919050565b6000819050602082019050919050565b60008190508160005260206000209050919050565b600081519050919050565b600081519050919050565b600081519050919050565b600081519050919050565b6000602082019050919050565b6000602082019050919050565b6000602082019050919050565b600082825260208201905092915050565b600082825260208201905092915050565b600082825260208201905092915050565b600082825260208201905092915050565b600081905092915050565b600082825260208201905092915050565b600082825260208201905092915050565b60006157408261582c565b915061574b8361582c565b92508260ff0382111561576157615760615972565b5b828201905092915050565b60006157778261580e565b91506157828361580e565b92508282101561579557615794615972565b5b828203905092915050565b60006157ab826157ee565b9050919050565b60008115159050919050565b6000819050919050565b60008190506157d682615a4c565b919050565b60008190506157e982615a60565b919050565b600073ffffffffffffffffffffffffffffffffffffffff82169050919050565b6000819050919050565b600067ffffffffffffffff82169050919050565b600060ff82169050919050565b6000615844826157c8565b9050919050565b6000615856826157db565b9050919050565b60006158688261582c565b9050919050565b82818337600083830152505050565b60005b8381101561589c578082015181840152602081019050615881565b838111156158ab576000848401525b50505050565b600060028204905060018216806158c957607f821691505b602082108114156158dd576158dc6159d0565b5b50919050565b60006158ee8261580e565b91507fffffffffffffffffffffffffffffffffffffffffffffffffffffffffffffffff82141561592157615920615972565b5b600182019050919050565b60006159378261582c565b915060ff82141561594b5761594a615972565b5b600182019050919050565b6000819050919050565b600061596b82615a3f565b9050919050565b7f4e487b7100000000000000000000000000000000000000000000000000000000600052601160045260246000fd5b7f4e487b7100000000000000000000000000000000000000000000000000000000600052602160045260246000fd5b7f4e487b7100000000000000000000000000000000000000000000000000000000600052602260045260246000fd5b7f4e487b7100000000000000000000000000000000000000000000000000000000600052604160045260246000fd5b6000601f19601f8301169050919050565b60008160f81b9050919050565b60038110615a5d57615a5c6159a1565b5b50565b60038110615a7157615a706159a1565b5b50565b615a7d816157a0565b8114615a8857600080fd5b50565b615a94816157b2565b8114615a9f57600080fd5b50565b615aab816157be565b8114615ab657600080fd5b50565b60038110615ac657600080fd5b50565b615ad28161580e565b8114615add57600080fd5b50565b615ae981615818565b8114615af457600080fd5b50565b615b008161582c565b8114615b0b57600080fd5b5056fe496e76616c6964207573657220726f6c65206f72207265736f757263652074797065a26469706673582212205eba2594564aad59a705b378be5dade101f8c9493fdbba2635458afa8e84660e64736f6c63430008000033",
  "linkReferences": {},
  "deployedLinkReferences": {}
}