{
  "_format": "hh-sol-artifact-1",
  "contractName": "Users",
  "sourceName": "contracts/Users.sol",
  "abi": [
    {
      "anonymous": false,
      "inputs": [
        {
          "indexed": false,
          "internalType": "address",
          "name": "addr",
          "type": "address"
        },
        {
          "indexed": false,
          "internalType": "string",
          "name": "name",
          "type": "string"
        },
        {
          "indexed": false,
          "internalType": "enum Users.UserRole",
          "name": "role",
          "type": "uint8"
        }
      ],
      "name": "NewUser",
      "type": "event"
    },
    {
      "anonymous": false,
      "inputs": [
        {
          "indexed": false,
          "internalType": "address",
          "name": "addr",
          "type": "address"
        }
      ],
      "name": "RemoveUser",
      "type": "event"
    },
    {
      "anonymous": false,
      "inputs": [
        {
          "indexed": false,
          "internalType": "address",
          "name": "userAddress",
          "type": "address"
        },
        {
          "indexed": false,
          "internalType": "string",
          "name": "newName",
          "type": "string"
        },
        {
          "indexed": false,
          "internalType": "string",
          "name": "newLocation",
          "type": "string"
        },
        {
          "indexed": false,
          "internalType": "uint8",
          "name": "newRole",
          "type": "uint8"
        }
      ],
      "name": "UpdateUser",
      "type": "event"
    },
    {
      "inputs": [],
      "name": "checkValidUser",
      "outputs": [
        {
          "internalType": "bool",
          "name": "",
          "type": "bool"
        }
      ],
      "stateMutability": "view",
      "type": "function"
    },
    {
      "inputs": [
        {
          "internalType": "address",
          "name": "",
          "type": "address"
        }
      ],
      "name": "isUser",
      "outputs": [
        {
          "internalType": "bool",
          "name": "",
          "type": "bool"
        }
      ],
      "stateMutability": "view",
      "type": "function"
    },
    {
      "inputs": [],
      "name": "listOfUsers",
      "outputs": [
        {
          "internalType": "address[]",
          "name": "",
          "type": "address[]"
        }
      ],
      "stateMutability": "view",
      "type": "function"
    },
    {
      "inputs": [],
      "name": "userCounter",
      "outputs": [
        {
          "internalType": "uint8",
          "name": "",
          "type": "uint8"
        }
      ],
      "stateMutability": "view",
      "type": "function"
    },
    {
      "inputs": [
        {
          "internalType": "address",
          "name": "",
          "type": "address"
        }
      ],
      "name": "userDetail",
      "outputs": [
        {
          "internalType": "address",
          "name": "userAddress",
          "type": "address"
        },
        {
          "internalType": "string",
          "name": "userName",
          "type": "string"
        },
        {
          "internalType": "uint256",
          "name": "userIndex",
          "type": "uint256"
        },
        {
          "internalType": "string",
          "name": "location",
          "type": "string"
        },
        {
          "internalType": "enum Users.UserRole",
          "name": "role",
          "type": "uint8"
        }
      ],
      "stateMutability": "view",
      "type": "function"
    },
    {
      "inputs": [
        {
          "internalType": "uint256",
          "name": "",
          "type": "uint256"
        }
      ],
      "name": "userIndex",
      "outputs": [
        {
          "internalType": "address",
          "name": "",
          "type": "address"
        }
      ],
      "stateMutability": "view",
      "type": "function"
    }
  ],
  "bytecode": "0x608060405260008060006101000a81548160ff021916908360ff16021790555034801561002b57600080fd5b506108958061003b6000396000f3fe608060405234801561001057600080fd5b50600436106100625760003560e01c806319ce63dc146100675780634209fff1146100855780635b10493f146100b5578063bb69b8d3146100e9578063c37dfd6e14610107578063f0c37a5914610137575b600080fd5b61006f610155565b60405161007c9190610622565b60405180910390f35b61009f600480360381019061009a919061044b565b6101e3565b6040516100ac9190610644565b60405180910390f35b6100cf60048036038101906100ca919061044b565b610203565b6040516100e09594939291906105c1565b60405180910390f35b6100f1610376565b6040516100fe9190610644565b60405180910390f35b610121600480360381019061011c9190610474565b6103d1565b60405161012e91906105a6565b60405180910390f35b61013f610410565b60405161014c919061065f565b60405180910390f35b606060038054806020026020016040519081016040528092919081815260200182805480156101d957602002820191906000526020600020905b8160009054906101000a900473ffffffffffffffffffffffffffffffffffffffff1673ffffffffffffffffffffffffffffffffffffffff168152602001906001019080831161018f575b5050505050905090565b60026020528060005260406000206000915054906101000a900460ff1681565b60016020528060005260406000206000915090508060000160009054906101000a900473ffffffffffffffffffffffffffffffffffffffff169080600101805461024c9061077c565b80601f01602080910402602001604051908101604052809291908181526020018280546102789061077c565b80156102c55780601f1061029a576101008083540402835291602001916102c5565b820191906000526020600020905b8154815290600101906020018083116102a857829003601f168201915b5050505050908060020154908060030180546102e09061077c565b80601f016020809104026020016040519081016040528092919081815260200182805461030c9061077c565b80156103595780601f1061032e57610100808354040283529160200191610359565b820191906000526020600020905b81548152906001019060200180831161033c57829003601f168201915b5050505050908060040160009054906101000a900460ff16905085565b600060011515600260003373ffffffffffffffffffffffffffffffffffffffff1673ffffffffffffffffffffffffffffffffffffffff16815260200190815260200160002060009054906101000a900460ff16151514905090565b600381815481106103e157600080fd5b906000526020600020016000915054906101000a900473ffffffffffffffffffffffffffffffffffffffff1681565b60008054906101000a900460ff1681565b60008135905061043081610831565b92915050565b60008135905061044581610848565b92915050565b60006020828403121561045d57600080fd5b600061046b84828501610421565b91505092915050565b60006020828403121561048657600080fd5b600061049484828501610436565b91505092915050565b60006104a983836104b5565b60208301905092915050565b6104be816106cf565b82525050565b6104cd816106cf565b82525050565b60006104de8261068a565b6104e881856106ad565b93506104f38361067a565b8060005b8381101561052457815161050b888261049d565b9750610516836106a0565b9250506001810190506104f7565b5085935050505092915050565b61053a816106e1565b82525050565b61054981610737565b82525050565b600061055a82610695565b61056481856106be565b9350610574818560208601610749565b61057d8161080c565b840191505092915050565b61059181610720565b82525050565b6105a08161072a565b82525050565b60006020820190506105bb60008301846104c4565b92915050565b600060a0820190506105d660008301886104c4565b81810360208301526105e8818761054f565b90506105f76040830186610588565b8181036060830152610609818561054f565b90506106186080830184610540565b9695505050505050565b6000602082019050818103600083015261063c81846104d3565b905092915050565b60006020820190506106596000830184610531565b92915050565b60006020820190506106746000830184610597565b92915050565b6000819050602082019050919050565b600081519050919050565b600081519050919050565b6000602082019050919050565b600082825260208201905092915050565b600082825260208201905092915050565b60006106da82610700565b9050919050565b60008115159050919050565b60008190506106fb8261081d565b919050565b600073ffffffffffffffffffffffffffffffffffffffff82169050919050565b6000819050919050565b600060ff82169050919050565b6000610742826106ed565b9050919050565b60005b8381101561076757808201518184015260208101905061074c565b83811115610776576000848401525b50505050565b6000600282049050600182168061079457607f821691505b602082108114156107a8576107a76107dd565b5b50919050565b7f4e487b7100000000000000000000000000000000000000000000000000000000600052602160045260246000fd5b7f4e487b7100000000000000000000000000000000000000000000000000000000600052602260045260246000fd5b6000601f19601f8301169050919050565b6003811061082e5761082d6107ae565b5b50565b61083a816106cf565b811461084557600080fd5b50565b61085181610720565b811461085c57600080fd5b5056fea2646970667358221220609ce8dabb372511f9fd167ae79032249784064894e6d81936df875258c4285064736f6c63430008000033",
  "linkReferences": {},
  "deployedLinkReferences": {}
}