{
  "_format": "hh-sol-artifact-1",
  "contractName": "Policies",
  "sourceName": "contracts/Policies.sol",
  "abi": [
    {
      "anonymous": false,
      "inputs": [
        {
          "indexed": false,
          "internalType": "string",
          "name": "link",
          "type": "string"
        },
        {
          "indexed": false,
          "internalType": "enum Resources.ResourceType",
          "name": "res",
          "type": "uint8"
        },
        {
          "indexed": false,
          "internalType": "uint256",
          "name": "res_id",
          "type": "uint256"
        },
        {
          "indexed": false,
          "internalType": "string",
          "name": "location",
          "type": "string"
        }
      ],
      "name": "NewResource",
      "type": "event"
    },
    {
      "anonymous": false,
      "inputs": [
        {
          "indexed": false,
          "internalType": "address",
          "name": "addr",
          "type": "address"
        },
        {
          "indexed": false,
          "internalType": "string",
          "name": "name",
          "type": "string"
        },
        {
          "indexed": false,
          "internalType": "enum Users.UserRole",
          "name": "role",
          "type": "uint8"
        }
      ],
      "name": "NewUser",
      "type": "event"
    },
    {
      "anonymous": false,
      "inputs": [
        {
          "indexed": false,
          "internalType": "address",
          "name": "user",
          "type": "address"
        },
        {
          "indexed": false,
          "internalType": "bytes32",
          "name": "resourceHash",
          "type": "bytes32"
        }
      ],
      "name": "PermissionGranted",
      "type": "event"
    },
    {
      "anonymous": false,
      "inputs": [
        {
          "indexed": false,
          "internalType": "uint256",
          "name": "policyIndex",
          "type": "uint256"
        }
      ],
      "name": "PolicyAdded",
      "type": "event"
    },
    {
      "anonymous": false,
      "inputs": [
        {
          "indexed": false,
          "internalType": "uint256",
          "name": "policyIndex",
          "type": "uint256"
        }
      ],
      "name": "PolicyUpdated",
      "type": "event"
    },
    {
      "anonymous": false,
      "inputs": [
        {
          "indexed": false,
          "internalType": "address",
          "name": "addr",
          "type": "address"
        }
      ],
      "name": "RemoveUser",
      "type": "event"
    },
    {
      "anonymous": false,
      "inputs": [
        {
          "indexed": false,
          "internalType": "string",
          "name": "link",
          "type": "string"
        },
        {
          "indexed": false,
          "internalType": "enum Resources.ResourceType",
          "name": "res",
          "type": "uint8"
        },
        {
          "indexed": false,
          "internalType": "string",
          "name": "location",
          "type": "string"
        }
      ],
      "name": "UpdateResource",
      "type": "event"
    },
    {
      "anonymous": false,
      "inputs": [
        {
          "indexed": false,
          "internalType": "address",
          "name": "userAddress",
          "type": "address"
        },
        {
          "indexed": false,
          "internalType": "string",
          "name": "newName",
          "type": "string"
        },
        {
          "indexed": false,
          "internalType": "string",
          "name": "newLocation",
          "type": "string"
        },
        {
          "indexed": false,
          "internalType": "uint8",
          "name": "newRole",
          "type": "uint8"
        }
      ],
      "name": "UpdateUser",
      "type": "event"
    },
    {
      "inputs": [],
      "name": "checkValidUser",
      "outputs": [
        {
          "internalType": "bool",
          "name": "",
          "type": "bool"
        }
      ],
      "stateMutability": "view",
      "type": "function"
    },
    {
      "inputs": [
        {
          "internalType": "bytes32",
          "name": "resourceHash",
          "type": "bytes32"
        }
      ],
      "name": "grantPermission",
      "outputs": [
        {
          "internalType": "string",
          "name": "",
          "type": "string"
        }
      ],
      "stateMutability": "view",
      "type": "function"
    },
    {
      "inputs": [
        {
          "internalType": "address",
          "name": "",
          "type": "address"
        }
      ],
      "name": "isUser",
      "outputs": [
        {
          "internalType": "bool",
          "name": "",
          "type": "bool"
        }
      ],
      "stateMutability": "view",
      "type": "function"
    },
    {
      "inputs": [],
      "name": "listOfPolicy",
      "outputs": [
        {
          "components": [
            {
              "internalType": "address",
              "name": "owner",
              "type": "address"
            },
            {
              "components": [
                {
                  "internalType": "address[]",
                  "name": "userA",
                  "type": "address[]"
                }
              ],
              "internalType": "struct Policies.userAddresss",
              "name": "userAddress",
              "type": "tuple"
            },
            {
              "components": [
                {
                  "internalType": "uint256",
                  "name": "startTime",
                  "type": "uint256"
                },
                {
                  "internalType": "uint256",
                  "name": "endTime",
                  "type": "uint256"
                }
              ],
              "internalType": "struct Policies.Condition",
              "name": "condition",
              "type": "tuple"
            },
            {
              "internalType": "uint256",
              "name": "policyID",
              "type": "uint256"
            },
            {
              "internalType": "string",
              "name": "location",
              "type": "string"
            },
            {
              "internalType": "bool",
              "name": "allowed",
              "type": "bool"
            },
            {
              "internalType": "enum Resources.ResourceType",
              "name": "resourceType",
              "type": "uint8"
            }
          ],
          "internalType": "struct Policies.Policy[]",
          "name": "",
          "type": "tuple[]"
        }
      ],
      "stateMutability": "view",
      "type": "function"
    },
    {
      "inputs": [],
      "name": "listOfUsers",
      "outputs": [
        {
          "internalType": "address[]",
          "name": "",
          "type": "address[]"
        }
      ],
      "stateMutability": "view",
      "type": "function"
    },
    {
      "inputs": [],
      "name": "policyCounter",
      "outputs": [
        {
          "internalType": "uint8",
          "name": "",
          "type": "uint8"
        }
      ],
      "stateMutability": "view",
      "type": "function"
    },
    {
      "inputs": [
        {
          "internalType": "uint256",
          "name": "",
          "type": "uint256"
        }
      ],
      "name": "policyDetail",
      "outputs": [
        {
          "internalType": "address",
          "name": "owner",
          "type": "address"
        },
        {
          "components": [
            {
              "internalType": "address[]",
              "name": "userA",
              "type": "address[]"
            }
          ],
          "internalType": "struct Policies.userAddresss",
          "name": "userAddress",
          "type": "tuple"
        },
        {
          "components": [
            {
              "internalType": "uint256",
              "name": "startTime",
              "type": "uint256"
            },
            {
              "internalType": "uint256",
              "name": "endTime",
              "type": "uint256"
            }
          ],
          "internalType": "struct Policies.Condition",
          "name": "condition",
          "type": "tuple"
        },
        {
          "internalType": "uint256",
          "name": "policyID",
          "type": "uint256"
        },
        {
          "internalType": "string",
          "name": "location",
          "type": "string"
        },
        {
          "internalType": "bool",
          "name": "allowed",
          "type": "bool"
        },
        {
          "internalType": "enum Resources.ResourceType",
          "name": "resourceType",
          "type": "uint8"
        }
      ],
      "stateMutability": "view",
      "type": "function"
    },
    {
      "inputs": [],
      "name": "resCounter",
      "outputs": [
        {
          "internalType": "uint8",
          "name": "",
          "type": "uint8"
        }
      ],
      "stateMutability": "view",
      "type": "function"
    },
    {
      "inputs": [
        {
          "internalType": "uint256",
          "name": "",
          "type": "uint256"
        }
      ],
      "name": "resourceIndex",
      "outputs": [
        {
          "internalType": "bytes32",
          "name": "",
          "type": "bytes32"
        }
      ],
      "stateMutability": "view",
      "type": "function"
    },
    {
      "inputs": [],
      "name": "userCounter",
      "outputs": [
        {
          "internalType": "uint8",
          "name": "",
          "type": "uint8"
        }
      ],
      "stateMutability": "view",
      "type": "function"
    },
    {
      "inputs": [
        {
          "internalType": "address",
          "name": "",
          "type": "address"
        }
      ],
      "name": "userDetail",
      "outputs": [
        {
          "internalType": "address",
          "name": "userAddress",
          "type": "address"
        },
        {
          "internalType": "string",
          "name": "userName",
          "type": "string"
        },
        {
          "internalType": "uint256",
          "name": "userIndex",
          "type": "uint256"
        },
        {
          "internalType": "string",
          "name": "location",
          "type": "string"
        },
        {
          "internalType": "enum Users.UserRole",
          "name": "role",
          "type": "uint8"
        }
      ],
      "stateMutability": "view",
      "type": "function"
    },
    {
      "inputs": [
        {
          "internalType": "uint256",
          "name": "",
          "type": "uint256"
        }
      ],
      "name": "userIndex",
      "outputs": [
        {
          "internalType": "address",
          "name": "",
          "type": "address"
        }
      ],
      "stateMutability": "view",
      "type": "function"
    }
  ],
  "bytecode": "0x608060405260008060006101000a81548160ff021916908360ff1602179055506000600b60006101000a81548160ff021916908360ff16021790555034801561004757600080fd5b506122a9806100576000396000f3fe608060405234801561001057600080fd5b50600436106100b45760003560e01c80639fe0be4c116100715780639fe0be4c146101bf578063b77ad4d5146101ef578063bb69b8d31461020d578063c37dfd6e1461022b578063d52c1bea1461025b578063f0c37a5914610279576100b4565b806319ce63dc146100b9578063324e40c0146100d75780634209fff11461010757806351f4a917146101375780635b10493f1461016d578063628ca9f6146101a1575b600080fd5b6100c1610297565b6040516100ce9190611e0a565b60405180910390f35b6100f160048036038101906100ec91906117dd565b610325565b6040516100fe9190611e69565b60405180910390f35b610121600480360381019061011c919061178b565b610349565b60405161012e9190611e4e565b60405180910390f35b610151600480360381019061014c91906117dd565b610369565b6040516101649796959493929190611d8c565b60405180910390f35b6101876004803603810190610182919061178b565b610533565b604051610198959493929190611d2b565b60405180910390f35b6101a96106a6565b6040516101b69190611f46565b60405180910390f35b6101d960048036038101906101d491906117b4565b6106b9565b6040516101e69190611e84565b60405180910390f35b6101f7610799565b6040516102049190611e2c565b60405180910390f35b610215610a56565b6040516102229190611e4e565b60405180910390f35b610245600480360381019061024091906117dd565b610ab1565b6040516102529190611d10565b60405180910390f35b610263610af0565b6040516102709190611f46565b60405180910390f35b610281610b03565b60405161028e9190611f46565b60405180910390f35b6060600380548060200260200160405190810160405280929190818152602001828054801561031b57602002820191906000526020600020905b8160009054906101000a900473ffffffffffffffffffffffffffffffffffffffff1673ffffffffffffffffffffffffffffffffffffffff16815260200190600101908083116102d1575b5050505050905090565b600a818154811061033557600080fd5b906000526020600020016000915090505481565b60026020528060005260406000206000915054906101000a900460ff1681565b600c818154811061037957600080fd5b90600052602060002090600702016000915090508060000160009054906101000a900473ffffffffffffffffffffffffffffffffffffffff1690806001016040518060200160405290816000820180548060200260200160405190810160405280929190818152602001828054801561044757602002820191906000526020600020905b8160009054906101000a900473ffffffffffffffffffffffffffffffffffffffff1673ffffffffffffffffffffffffffffffffffffffff16815260200190600101908083116103fd575b5050505050815250509080600201604051806040016040529081600082015481526020016001820154815250509080600401549080600501805461048a906120ed565b80601f01602080910402602001604051908101604052809291908181526020018280546104b6906120ed565b80156105035780601f106104d857610100808354040283529160200191610503565b820191906000526020600020905b8154815290600101906020018083116104e657829003601f168201915b5050505050908060060160009054906101000a900460ff16908060060160019054906101000a900460ff16905087565b60016020528060005260406000206000915090508060000160009054906101000a900473ffffffffffffffffffffffffffffffffffffffff169080600101805461057c906120ed565b80601f01602080910402602001604051908101604052809291908181526020018280546105a8906120ed565b80156105f55780601f106105ca576101008083540402835291602001916105f5565b820191906000526020600020905b8154815290600101906020018083116105d857829003601f168201915b505050505090806002015490806003018054610610906120ed565b80601f016020809104026020016040519081016040528092919081815260200182805461063c906120ed565b80156106895780601f1061065e57610100808354040283529160200191610689565b820191906000526020600020905b81548152906001019060200180831161066c57829003601f168201915b5050505050908060040160009054906101000a900460ff16905085565b600460009054906101000a900460ff1681565b6060600115156106c7610a56565b151514610709576040517f08c379a000000000000000000000000000000000000000000000000000000000815260040161070090611ee6565b60405180910390fd5b60006107153384610b14565b90508060a0015161075b576040517f08c379a000000000000000000000000000000000000000000000000000000000815260040161075290611f26565b60405180910390fd5b6040518060400160405280601d81526020017f5375636365737366756c6c79205065726d697373696f6e204772616e74000000815250915050919050565b6060600c805480602002602001604051908101604052809291908181526020016000905b82821015610a4d57838290600052602060002090600702016040518060e00160405290816000820160009054906101000a900473ffffffffffffffffffffffffffffffffffffffff1673ffffffffffffffffffffffffffffffffffffffff1673ffffffffffffffffffffffffffffffffffffffff16815260200160018201604051806020016040529081600082018054806020026020016040519081016040528092919081815260200182805480156108cb57602002820191906000526020600020905b8160009054906101000a900473ffffffffffffffffffffffffffffffffffffffff1673ffffffffffffffffffffffffffffffffffffffff1681526020019060010190808311610881575b5050505050815250508152602001600282016040518060400160405290816000820154815260200160018201548152505081526020016004820154815260200160058201805461091a906120ed565b80601f0160208091040260200160405190810160405280929190818152602001828054610946906120ed565b80156109935780601f1061096857610100808354040283529160200191610993565b820191906000526020600020905b81548152906001019060200180831161097657829003601f168201915b505050505081526020016006820160009054906101000a900460ff161515151581526020016006820160019054906101000a900460ff166002811115610a02577f4e487b7100000000000000000000000000000000000000000000000000000000600052602160045260246000fd5b6002811115610a3a577f4e487b7100000000000000000000000000000000000000000000000000000000600052602160045260246000fd5b81525050815260200190600101906107bd565b50505050905090565b600060011515600260003373ffffffffffffffffffffffffffffffffffffffff1673ffffffffffffffffffffffffffffffffffffffff16815260200190815260200160002060009054906101000a900460ff16151514905090565b60038181548110610ac157600080fd5b906000526020600020016000915054906101000a900473ffffffffffffffffffffffffffffffffffffffff1681565b600b60009054906101000a900460ff1681565b60008054906101000a900460ff1681565b610b1c6115f9565b60005b600c80549050811015610e42576000600c8281548110610b68577f4e487b7100000000000000000000000000000000000000000000000000000000600052603260045260246000fd5b90600052602060002090600702016040518060e00160405290816000820160009054906101000a900473ffffffffffffffffffffffffffffffffffffffff1673ffffffffffffffffffffffffffffffffffffffff1673ffffffffffffffffffffffffffffffffffffffff1681526020016001820160405180602001604052908160008201805480602002602001604051908101604052809291908181526020018280548015610c6c57602002820191906000526020600020905b8160009054906101000a900473ffffffffffffffffffffffffffffffffffffffff1673ffffffffffffffffffffffffffffffffffffffff1681526020019060010190808311610c22575b50505050508152505081526020016002820160405180604001604052908160008201548152602001600182015481525050815260200160048201548152602001600582018054610cbb906120ed565b80601f0160208091040260200160405190810160405280929190818152602001828054610ce7906120ed565b8015610d345780601f10610d0957610100808354040283529160200191610d34565b820191906000526020600020905b815481529060010190602001808311610d1757829003601f168201915b505050505081526020016006820160009054906101000a900460ff161515151581526020016006820160019054906101000a900460ff166002811115610da3577f4e487b7100000000000000000000000000000000000000000000000000000000600052602160045260246000fd5b6002811115610ddb577f4e487b7100000000000000000000000000000000000000000000000000000000600052602160045260246000fd5b815250509050610deb8582610e84565b8015610dfc5750610dfb81610f78565b5b8015610e0e5750610e0d8185610fa6565b5b8015610e1f5750610e1e84610fd1565b5b15610e2e578092505050610e7e565b508080610e3a9061211f565b915050610b1f565b506040517f08c379a0000000000000000000000000000000000000000000000000000000008152600401610e7590611ec6565b60405180910390fd5b92915050565b600080600090505b82602001516000015151811015610f36578373ffffffffffffffffffffffffffffffffffffffff168360200151600001518281518110610ef5577f4e487b7100000000000000000000000000000000000000000000000000000000600052603260045260246000fd5b602002602001015173ffffffffffffffffffffffffffffffffffffffff161415610f23576001915050610f72565b8080610f2e9061211f565b915050610e8c565b506040517f08c379a0000000000000000000000000000000000000000000000000000000008152600401610f6990611ea6565b60405180910390fd5b92915050565b6000804290508260400151600001518110158015610f9e57508260400151602001518111155b915050919050565b6000610fb18261139c565b608001518051906020012083608001518051906020012014905092915050565b6000806008600084815260200190815260200160002060050160019054906101000a900460ff16905060005b600c8054905081101561135b576000600c8281548110611046577f4e487b7100000000000000000000000000000000000000000000000000000000600052603260045260246000fd5b90600052602060002090600702016040518060e00160405290816000820160009054906101000a900473ffffffffffffffffffffffffffffffffffffffff1673ffffffffffffffffffffffffffffffffffffffff1673ffffffffffffffffffffffffffffffffffffffff168152602001600182016040518060200160405290816000820180548060200260200160405190810160405280929190818152602001828054801561114a57602002820191906000526020600020905b8160009054906101000a900473ffffffffffffffffffffffffffffffffffffffff1673ffffffffffffffffffffffffffffffffffffffff1681526020019060010190808311611100575b50505050508152505081526020016002820160405180604001604052908160008201548152602001600182015481525050815260200160048201548152602001600582018054611199906120ed565b80601f01602080910402602001604051908101604052809291908181526020018280546111c5906120ed565b80156112125780601f106111e757610100808354040283529160200191611212565b820191906000526020600020905b8154815290600101906020018083116111f557829003601f168201915b505050505081526020016006820160009054906101000a900460ff161515151581526020016006820160019054906101000a900460ff166002811115611281577f4e487b7100000000000000000000000000000000000000000000000000000000600052602160045260246000fd5b60028111156112b9577f4e487b7100000000000000000000000000000000000000000000000000000000600052602160045260246000fd5b8152505090508260028111156112f8577f4e487b7100000000000000000000000000000000000000000000000000000000600052602160045260246000fd5b8160c001516002811115611335577f4e487b7100000000000000000000000000000000000000000000000000000000600052602160045260246000fd5b14156113475760019350505050611397565b5080806113539061211f565b915050610ffd565b506040517f08c379a000000000000000000000000000000000000000000000000000000000815260040161138e90611f06565b60405180910390fd5b919050565b6113a4611692565b600860008381526020019081526020016000206040518060e00160405290816000820160009054906101000a900473ffffffffffffffffffffffffffffffffffffffff1673ffffffffffffffffffffffffffffffffffffffff1673ffffffffffffffffffffffffffffffffffffffff168152602001600182018054611428906120ed565b80601f0160208091040260200160405190810160405280929190818152602001828054611454906120ed565b80156114a15780601f10611476576101008083540402835291602001916114a1565b820191906000526020600020905b81548152906001019060200180831161148457829003601f168201915b5050505050815260200160028201548152602001600382015481526020016004820180546114ce906120ed565b80601f01602080910402602001604051908101604052809291908181526020018280546114fa906120ed565b80156115475780601f1061151c57610100808354040283529160200191611547565b820191906000526020600020905b81548152906001019060200180831161152a57829003601f168201915b505050505081526020016005820160009054906101000a900460ff161515151581526020016005820160019054906101000a900460ff1660028111156115b6577f4e487b7100000000000000000000000000000000000000000000000000000000600052602160045260246000fd5b60028111156115ee577f4e487b7100000000000000000000000000000000000000000000000000000000600052602160045260246000fd5b815250509050919050565b6040518060e00160405280600073ffffffffffffffffffffffffffffffffffffffff16815260200161162961171f565b8152602001611636611732565b815260200160008152602001606081526020016000151581526020016000600281111561168c577f4e487b7100000000000000000000000000000000000000000000000000000000600052602160045260246000fd5b81525090565b6040518060e00160405280600073ffffffffffffffffffffffffffffffffffffffff1681526020016060815260200160008152602001600081526020016060815260200160001515815260200160006002811115611719577f4e487b7100000000000000000000000000000000000000000000000000000000600052602160045260246000fd5b81525090565b6040518060200160405280606081525090565b604051806040016040528060008152602001600081525090565b60008135905061175b8161222e565b92915050565b60008135905061177081612245565b92915050565b6000813590506117858161225c565b92915050565b60006020828403121561179d57600080fd5b60006117ab8482850161174c565b91505092915050565b6000602082840312156117c657600080fd5b60006117d484828501611761565b91505092915050565b6000602082840312156117ef57600080fd5b60006117fd84828501611776565b91505092915050565b60006118128383611832565b60208301905092915050565b600061182a8383611beb565b905092915050565b61183b81612011565b82525050565b61184a81612011565b82525050565b600061185b82611f81565b6118658185611fbc565b935061187083611f61565b8060005b838110156118a15781516118888882611806565b975061189383611fa2565b925050600181019050611874565b5085935050505092915050565b60006118b982611f81565b6118c38185611fcd565b93506118ce83611f61565b8060005b838110156118ff5781516118e68882611806565b97506118f183611fa2565b9250506001810190506118d2565b5085935050505092915050565b600061191782611f8c565b6119218185611fde565b93508360208202850161193385611f71565b8060005b8581101561196f5784840389528151611950858261181e565b945061195b83611faf565b925060208a01995050600181019050611937565b50829750879550505050505092915050565b61198a81612023565b82525050565b61199981612023565b82525050565b6119a88161202f565b82525050565b6119b781612096565b82525050565b6119c681612096565b82525050565b6119d5816120a8565b82525050565b60006119e682611f97565b6119f08185611fef565b9350611a008185602086016120ba565b611a09816121f5565b840191505092915050565b6000611a1f82611f97565b611a298185612000565b9350611a398185602086016120ba565b611a42816121f5565b840191505092915050565b6000611a5a601783612000565b91507f4e6f2055736572206d6174636820496e20506f6c6963790000000000000000006000830152602082019050919050565b6000611a9a601883612000565b91507f4e6f206d61746368696e6720706f6c69637920666f756e6400000000000000006000830152602082019050919050565b6000611ada601583612000565b91507f4e6f7420612072656769737465726564207573657200000000000000000000006000830152602082019050919050565b6000611b1a601683612000565b91507f5265736f7563657320617265206e6f74206d61746368000000000000000000006000830152602082019050919050565b6000611b5a601183612000565b91507f5065726d697373696f6e2064656e6965640000000000000000000000000000006000830152602082019050919050565b604082016000820151611ba36000850182611ce3565b506020820151611bb66020850182611ce3565b50505050565b604082016000820151611bd26000850182611ce3565b506020820151611be56020850182611ce3565b50505050565b600061010083016000830151611c046000860182611832565b5060208301518482036020860152611c1c8282611c8f565b9150506040830151611c316040860182611b8d565b506060830151611c446080860182611ce3565b50608083015184820360a0860152611c5c82826119db565b91505060a0830151611c7160c0860182611981565b5060c0830151611c8460e08601826119ae565b508091505092915050565b60006020830160008301518482036000860152611cac8282611850565b9150508091505092915050565b60006020830160008301518482036000860152611cd68282611850565b9150508091505092915050565b611cec8161207f565b82525050565b611cfb8161207f565b82525050565b611d0a81612089565b82525050565b6000602082019050611d256000830184611841565b92915050565b600060a082019050611d406000830188611841565b8181036020830152611d528187611a14565b9050611d616040830186611cf2565b8181036060830152611d738185611a14565b9050611d8260808301846119cc565b9695505050505050565b600061010082019050611da2600083018a611841565b8181036020830152611db48189611cb9565b9050611dc36040830188611bbc565b611dd06080830187611cf2565b81810360a0830152611de28186611a14565b9050611df160c0830185611990565b611dfe60e08301846119bd565b98975050505050505050565b60006020820190508181036000830152611e2481846118ae565b905092915050565b60006020820190508181036000830152611e46818461190c565b905092915050565b6000602082019050611e636000830184611990565b92915050565b6000602082019050611e7e600083018461199f565b92915050565b60006020820190508181036000830152611e9e8184611a14565b905092915050565b60006020820190508181036000830152611ebf81611a4d565b9050919050565b60006020820190508181036000830152611edf81611a8d565b9050919050565b60006020820190508181036000830152611eff81611acd565b9050919050565b60006020820190508181036000830152611f1f81611b0d565b9050919050565b60006020820190508181036000830152611f3f81611b4d565b9050919050565b6000602082019050611f5b6000830184611d01565b92915050565b6000819050602082019050919050565b6000819050602082019050919050565b600081519050919050565b600081519050919050565b600081519050919050565b6000602082019050919050565b6000602082019050919050565b600082825260208201905092915050565b600082825260208201905092915050565b600082825260208201905092915050565b600082825260208201905092915050565b600082825260208201905092915050565b600061201c8261205f565b9050919050565b60008115159050919050565b6000819050919050565b600081905061204782612206565b919050565b600081905061205a8261221a565b919050565b600073ffffffffffffffffffffffffffffffffffffffff82169050919050565b6000819050919050565b600060ff82169050919050565b60006120a182612039565b9050919050565b60006120b38261204c565b9050919050565b60005b838110156120d85780820151818401526020810190506120bd565b838111156120e7576000848401525b50505050565b6000600282049050600182168061210557607f821691505b60208210811415612119576121186121c6565b5b50919050565b600061212a8261207f565b91507fffffffffffffffffffffffffffffffffffffffffffffffffffffffffffffffff82141561215d5761215c612168565b5b600182019050919050565b7f4e487b7100000000000000000000000000000000000000000000000000000000600052601160045260246000fd5b7f4e487b7100000000000000000000000000000000000000000000000000000000600052602160045260246000fd5b7f4e487b7100000000000000000000000000000000000000000000000000000000600052602260045260246000fd5b6000601f19601f8301169050919050565b6003811061221757612216612197565b5b50565b6003811061222b5761222a612197565b5b50565b61223781612011565b811461224257600080fd5b50565b61224e8161202f565b811461225957600080fd5b50565b6122658161207f565b811461227057600080fd5b5056fea26469706673582212207b33380852c4220aa4c60474542c5896d81c357026f094bfe8f75a6934fc7a7564736f6c63430008000033",
  "linkReferences": {},
  "deployedLinkReferences": {}
}